{
  "contractName": "cryptopuppies",
  "abi": [
    {
      "inputs": [],
      "stateMutability": "nonpayable",
      "type": "constructor"
    },
    {
      "anonymous": false,
      "inputs": [
        {
          "indexed": true,
          "internalType": "address",
          "name": "owner",
          "type": "address"
        },
        {
          "indexed": true,
          "internalType": "address",
          "name": "approved",
          "type": "address"
        },
        {
          "indexed": true,
          "internalType": "uint256",
          "name": "tokenId",
          "type": "uint256"
        }
      ],
      "name": "Approval",
      "type": "event"
    },
    {
      "anonymous": false,
      "inputs": [
        {
          "indexed": true,
          "internalType": "address",
          "name": "owner",
          "type": "address"
        },
        {
          "indexed": true,
          "internalType": "address",
          "name": "operator",
          "type": "address"
        },
        {
          "indexed": false,
          "internalType": "bool",
          "name": "approved",
          "type": "bool"
        }
      ],
      "name": "ApprovalForAll",
      "type": "event"
    },
    {
      "anonymous": false,
      "inputs": [
        {
          "indexed": true,
          "internalType": "address",
          "name": "previousOwner",
          "type": "address"
        },
        {
          "indexed": true,
          "internalType": "address",
          "name": "newOwner",
          "type": "address"
        }
      ],
      "name": "OwnershipTransferred",
      "type": "event"
    },
    {
      "anonymous": false,
      "inputs": [
        {
          "indexed": true,
          "internalType": "address",
          "name": "from",
          "type": "address"
        },
        {
          "indexed": true,
          "internalType": "address",
          "name": "to",
          "type": "address"
        },
        {
          "indexed": true,
          "internalType": "uint256",
          "name": "tokenId",
          "type": "uint256"
        }
      ],
      "name": "Transfer",
      "type": "event"
    },
    {
      "inputs": [
        {
          "internalType": "address",
          "name": "to",
          "type": "address"
        },
        {
          "internalType": "uint256",
          "name": "tokenId",
          "type": "uint256"
        }
      ],
      "name": "approve",
      "outputs": [],
      "stateMutability": "nonpayable",
      "type": "function"
    },
    {
      "inputs": [
        {
          "internalType": "address",
          "name": "owner",
          "type": "address"
        }
      ],
      "name": "balanceOf",
      "outputs": [
        {
          "internalType": "uint256",
          "name": "",
          "type": "uint256"
        }
      ],
      "stateMutability": "view",
      "type": "function",
      "constant": true
    },
    {
      "inputs": [],
      "name": "baseURI",
      "outputs": [
        {
          "internalType": "string",
          "name": "",
          "type": "string"
        }
      ],
      "stateMutability": "view",
      "type": "function",
      "constant": true
    },
    {
      "inputs": [
        {
          "internalType": "uint256",
          "name": "tokenId",
          "type": "uint256"
        }
      ],
      "name": "getApproved",
      "outputs": [
        {
          "internalType": "address",
          "name": "",
          "type": "address"
        }
      ],
      "stateMutability": "view",
      "type": "function",
      "constant": true
    },
    {
      "inputs": [
        {
          "internalType": "address",
          "name": "owner",
          "type": "address"
        },
        {
          "internalType": "address",
          "name": "operator",
          "type": "address"
        }
      ],
      "name": "isApprovedForAll",
      "outputs": [
        {
          "internalType": "bool",
          "name": "",
          "type": "bool"
        }
      ],
      "stateMutability": "view",
      "type": "function",
      "constant": true
    },
    {
      "inputs": [],
      "name": "name",
      "outputs": [
        {
          "internalType": "string",
          "name": "",
          "type": "string"
        }
      ],
      "stateMutability": "view",
      "type": "function",
      "constant": true
    },
    {
      "inputs": [],
      "name": "owner",
      "outputs": [
        {
          "internalType": "address",
          "name": "",
          "type": "address"
        }
      ],
      "stateMutability": "view",
      "type": "function",
      "constant": true
    },
    {
      "inputs": [
        {
          "internalType": "uint256",
          "name": "tokenId",
          "type": "uint256"
        }
      ],
      "name": "ownerOf",
      "outputs": [
        {
          "internalType": "address",
          "name": "",
          "type": "address"
        }
      ],
      "stateMutability": "view",
      "type": "function",
      "constant": true
    },
    {
      "inputs": [
        {
          "internalType": "uint256",
          "name": "",
          "type": "uint256"
        }
      ],
      "name": "puppies",
      "outputs": [
        {
          "internalType": "string",
          "name": "",
          "type": "string"
        }
      ],
      "stateMutability": "view",
      "type": "function",
      "constant": true
    },
    {
      "inputs": [],
      "name": "renounceOwnership",
      "outputs": [],
      "stateMutability": "nonpayable",
      "type": "function"
    },
    {
      "inputs": [
        {
          "internalType": "address",
          "name": "from",
          "type": "address"
        },
        {
          "internalType": "address",
          "name": "to",
          "type": "address"
        },
        {
          "internalType": "uint256",
          "name": "tokenId",
          "type": "uint256"
        }
      ],
      "name": "safeTransferFrom",
      "outputs": [],
      "stateMutability": "nonpayable",
      "type": "function"
    },
    {
      "inputs": [
        {
          "internalType": "address",
          "name": "from",
          "type": "address"
        },
        {
          "internalType": "address",
          "name": "to",
          "type": "address"
        },
        {
          "internalType": "uint256",
          "name": "tokenId",
          "type": "uint256"
        },
        {
          "internalType": "bytes",
          "name": "_data",
          "type": "bytes"
        }
      ],
      "name": "safeTransferFrom",
      "outputs": [],
      "stateMutability": "nonpayable",
      "type": "function"
    },
    {
      "inputs": [
        {
          "internalType": "address",
          "name": "operator",
          "type": "address"
        },
        {
          "internalType": "bool",
          "name": "approved",
          "type": "bool"
        }
      ],
      "name": "setApprovalForAll",
      "outputs": [],
      "stateMutability": "nonpayable",
      "type": "function"
    },
    {
      "inputs": [
        {
          "internalType": "bytes4",
          "name": "interfaceId",
          "type": "bytes4"
        }
      ],
      "name": "supportsInterface",
      "outputs": [
        {
          "internalType": "bool",
          "name": "",
          "type": "bool"
        }
      ],
      "stateMutability": "view",
      "type": "function",
      "constant": true
    },
    {
      "inputs": [],
      "name": "symbol",
      "outputs": [
        {
          "internalType": "string",
          "name": "",
          "type": "string"
        }
      ],
      "stateMutability": "view",
      "type": "function",
      "constant": true
    },
    {
      "inputs": [
        {
          "internalType": "uint256",
          "name": "index",
          "type": "uint256"
        }
      ],
      "name": "tokenByIndex",
      "outputs": [
        {
          "internalType": "uint256",
          "name": "",
          "type": "uint256"
        }
      ],
      "stateMutability": "view",
      "type": "function",
      "constant": true
    },
    {
      "inputs": [
        {
          "internalType": "address",
          "name": "owner",
          "type": "address"
        },
        {
          "internalType": "uint256",
          "name": "index",
          "type": "uint256"
        }
      ],
      "name": "tokenOfOwnerByIndex",
      "outputs": [
        {
          "internalType": "uint256",
          "name": "",
          "type": "uint256"
        }
      ],
      "stateMutability": "view",
      "type": "function",
      "constant": true
    },
    {
      "inputs": [
        {
          "internalType": "uint256",
          "name": "tokenId",
          "type": "uint256"
        }
      ],
      "name": "tokenURI",
      "outputs": [
        {
          "internalType": "string",
          "name": "",
          "type": "string"
        }
      ],
      "stateMutability": "view",
      "type": "function",
      "constant": true
    },
    {
      "inputs": [],
      "name": "totalSupply",
      "outputs": [
        {
          "internalType": "uint256",
          "name": "",
          "type": "uint256"
        }
      ],
      "stateMutability": "view",
      "type": "function",
      "constant": true
    },
    {
      "inputs": [
        {
          "internalType": "address",
          "name": "from",
          "type": "address"
        },
        {
          "internalType": "address",
          "name": "to",
          "type": "address"
        },
        {
          "internalType": "uint256",
          "name": "tokenId",
          "type": "uint256"
        }
      ],
      "name": "transferFrom",
      "outputs": [],
      "stateMutability": "nonpayable",
      "type": "function"
    },
    {
      "inputs": [
        {
          "internalType": "address",
          "name": "newOwner",
          "type": "address"
        }
      ],
      "name": "transferOwnership",
      "outputs": [],
      "stateMutability": "nonpayable",
      "type": "function"
    },
    {
      "inputs": [
        {
          "internalType": "string",
          "name": "_puppy",
          "type": "string"
        }
      ],
      "name": "mint",
      "outputs": [
        {
          "internalType": "bool",
          "name": "",
          "type": "bool"
        }
      ],
      "stateMutability": "nonpayable",
      "type": "function"
    },
    {
      "inputs": [],
      "name": "getpuppies",
      "outputs": [
        {
          "internalType": "string[]",
          "name": "",
          "type": "string[]"
        }
      ],
      "stateMutability": "view",
      "type": "function",
      "constant": true
    }
  ],
  "bytecode": "0x60806040523480156200001157600080fd5b506040518060400160405280600581526020017f50757070790000000000000000000000000000000000000000000000000000008152506040518060400160405280600581526020017f5055505059000000000000000000000000000000000000000000000000000000815250600062000090620001c860201b60201c565b9050806000806101000a81548173ffffffffffffffffffffffffffffffffffffffff021916908373ffffffffffffffffffffffffffffffffffffffff1602179055508073ffffffffffffffffffffffffffffffffffffffff16600073ffffffffffffffffffffffffffffffffffffffff167f8be0079c531659141344cd1fd0a4f28419497f9722a3daafe3b4186f6b6457e060405160405180910390a350620001466301ffc9a760e01b620001d060201b60201c565b81600790805190602001906200015e929190620002d9565b50806008908051906020019062000177929190620002d9565b50620001906380ac58cd60e01b620001d060201b60201c565b620001a8635b5e139f60e01b620001d060201b60201c565b620001c063780e9d6360e01b620001d060201b60201c565b50506200038f565b600033905090565b63ffffffff60e01b817bffffffffffffffffffffffffffffffffffffffffffffffffffffffff191614156200026d576040517f08c379a000000000000000000000000000000000000000000000000000000000815260040180806020018281038252601c8152602001807f4552433136353a20696e76616c696420696e746572666163652069640000000081525060200191505060405180910390fd5b6001806000837bffffffffffffffffffffffffffffffffffffffffffffffffffffffff19167bffffffffffffffffffffffffffffffffffffffffffffffffffffffff1916815260200190815260200160002060006101000a81548160ff02191690831515021790555050565b828054600181600116156101000203166002900490600052602060002090601f0160209004810192826200031157600085556200035d565b82601f106200032c57805160ff19168380011785556200035d565b828001600101855582156200035d579182015b828111156200035c5782518255916020019190600101906200033f565b5b5090506200036c919062000370565b5090565b5b808211156200038b57600081600090555060010162000371565b5090565b613448806200039f6000396000f3fe608060405234801561001057600080fd5b506004361061014d5760003560e01c806370a08231116100c3578063aebf749c1161007c578063aebf749c146103a0578063b88d4fde146103d0578063c87b56dd146103ec578063d85d3d271461041c578063e985e9c51461044c578063f2fde38b1461047c5761014d565b806370a08231146102f0578063715018a6146103205780638da5cb5b1461032a57806395d89b4114610348578063963024fc14610366578063a22cb465146103845761014d565b806323b872dd1161011557806323b872dd1461020a5780632f745c591461022657806342842e0e146102565780634f6ccce7146102725780636352211e146102a25780636c0360eb146102d25761014d565b806301ffc9a71461015257806306fdde0314610182578063081812fc146101a0578063095ea7b3146101d057806318160ddd146101ec575b600080fd5b61016c60048036038101906101679190612ce0565b610498565b6040516101799190612f20565b60405180910390f35b61018a610500565b6040516101979190612f3b565b60405180910390f35b6101ba60048036038101906101b59190612d4a565b6105a2565b6040516101c79190612ee3565b60405180910390f35b6101ea60048036038101906101e59190612ca4565b61063d565b005b6101f4610781565b6040516102019190612f5d565b60405180910390f35b610224600480360381019061021f9190612b9e565b610792565b005b610240600480360381019061023b9190612ca4565b610808565b60405161024d9190612f5d565b60405180910390f35b610270600480360381019061026b9190612b9e565b610863565b005b61028c60048036038101906102879190612d4a565b610883565b6040516102999190612f5d565b60405180910390f35b6102bc60048036038101906102b79190612d4a565b6108a6565b6040516102c99190612ee3565b60405180910390f35b6102da6108dd565b6040516102e79190612f3b565b60405180910390f35b61030a60048036038101906103059190612b39565b61097f565b6040516103179190612f5d565b60405180910390f35b610328610a54565b005b610332610bda565b60405161033f9190612ee3565b60405180910390f35b610350610c03565b60405161035d9190612f3b565b60405180910390f35b61036e610ca5565b60405161037b9190612efe565b60405180910390f35b61039e60048036038101906103999190612c68565b610d8e565b005b6103ba60048036038101906103b59190612d4a565b610f44565b6040516103c79190612f3b565b60405180910390f35b6103ea60048036038101906103e59190612bed565b611000565b005b61040660048036038101906104019190612d4a565b611078565b6040516104139190612f3b565b60405180910390f35b61043660048036038101906104319190612d09565b611361565b6040516104439190612f20565b60405180910390f35b61046660048036038101906104619190612b62565b611424565b6040516104739190612f20565b60405180910390f35b61049660048036038101906104919190612b39565b6114b8565b005b600060016000837bffffffffffffffffffffffffffffffffffffffffffffffffffffffff19167bffffffffffffffffffffffffffffffffffffffffffffffffffffffff1916815260200190815260200160002060009054906101000a900460ff169050919050565b606060078054600181600116156101000203166002900480601f0160208091040260200160405190810160405280929190818152602001828054600181600116156101000203166002900480156105985780601f1061056d57610100808354040283529160200191610598565b820191906000526020600020905b81548152906001019060200180831161057b57829003601f168201915b5050505050905090565b60006105ad826116c3565b610602576040517f08c379a000000000000000000000000000000000000000000000000000000000815260040180806020018281038252602c81526020018061333d602c913960400191505060405180910390fd5b6005600083815260200190815260200160002060009054906101000a900473ffffffffffffffffffffffffffffffffffffffff169050919050565b6000610648826108a6565b90508073ffffffffffffffffffffffffffffffffffffffff168373ffffffffffffffffffffffffffffffffffffffff1614156106cf576040517f08c379a00000000000000000000000000000000000000000000000000000000081526004018080602001828103825260218152602001806133c16021913960400191505060405180910390fd5b8073ffffffffffffffffffffffffffffffffffffffff166106ee6116e0565b73ffffffffffffffffffffffffffffffffffffffff16148061071d575061071c816107176116e0565b611424565b5b610772576040517f08c379a00000000000000000000000000000000000000000000000000000000081526004018080602001828103825260388152602001806132906038913960400191505060405180910390fd5b61077c83836116e8565b505050565b600061078d60036117a1565b905090565b6107a361079d6116e0565b826117b6565b6107f8576040517f08c379a00000000000000000000000000000000000000000000000000000000081526004018080602001828103825260318152602001806133e26031913960400191505060405180910390fd5b6108038383836118aa565b505050565b600061085b82600260008673ffffffffffffffffffffffffffffffffffffffff1673ffffffffffffffffffffffffffffffffffffffff168152602001908152602001600020611aed90919063ffffffff16565b905092915050565b61087e83838360405180602001604052806000815250611000565b505050565b60008061089a836003611b0790919063ffffffff16565b50905080915050919050565b60006108d6826040518060600160405280602981526020016132f2602991396003611b339092919063ffffffff16565b9050919050565b6060600a8054600181600116156101000203166002900480601f0160208091040260200160405190810160405280929190818152602001828054600181600116156101000203166002900480156109755780601f1061094a57610100808354040283529160200191610975565b820191906000526020600020905b81548152906001019060200180831161095857829003601f168201915b5050505050905090565b60008073ffffffffffffffffffffffffffffffffffffffff168273ffffffffffffffffffffffffffffffffffffffff161415610a06576040517f08c379a000000000000000000000000000000000000000000000000000000000815260040180806020018281038252602a8152602001806132c8602a913960400191505060405180910390fd5b610a4d600260008473ffffffffffffffffffffffffffffffffffffffff1673ffffffffffffffffffffffffffffffffffffffff168152602001908152602001600020611b52565b9050919050565b610a5c6116e0565b73ffffffffffffffffffffffffffffffffffffffff1660008054906101000a900473ffffffffffffffffffffffffffffffffffffffff1673ffffffffffffffffffffffffffffffffffffffff1614610b1c576040517f08c379a00000000000000000000000000000000000000000000000000000000081526004018080602001828103825260208152602001807f4f776e61626c653a2063616c6c6572206973206e6f7420746865206f776e657281525060200191505060405180910390fd5b600073ffffffffffffffffffffffffffffffffffffffff1660008054906101000a900473ffffffffffffffffffffffffffffffffffffffff1673ffffffffffffffffffffffffffffffffffffffff167f8be0079c531659141344cd1fd0a4f28419497f9722a3daafe3b4186f6b6457e060405160405180910390a360008060006101000a81548173ffffffffffffffffffffffffffffffffffffffff021916908373ffffffffffffffffffffffffffffffffffffffff160217905550565b60008060009054906101000a900473ffffffffffffffffffffffffffffffffffffffff16905090565b606060088054600181600116156101000203166002900480601f016020809104026020016040519081016040528092919081815260200182805460018160011615610100020316600290048015610c9b5780601f10610c7057610100808354040283529160200191610c9b565b820191906000526020600020905b815481529060010190602001808311610c7e57829003601f168201915b5050505050905090565b6060600b805480602002602001604051908101604052809291908181526020016000905b82821015610d85578382906000526020600020018054600181600116156101000203166002900480601f016020809104026020016040519081016040528092919081815260200182805460018160011615610100020316600290048015610d715780601f10610d4657610100808354040283529160200191610d71565b820191906000526020600020905b815481529060010190602001808311610d5457829003601f168201915b505050505081526020019060010190610cc9565b50505050905090565b610d966116e0565b73ffffffffffffffffffffffffffffffffffffffff168273ffffffffffffffffffffffffffffffffffffffff161415610e37576040517f08c379a00000000000000000000000000000000000000000000000000000000081526004018080602001828103825260198152602001807f4552433732313a20617070726f766520746f2063616c6c65720000000000000081525060200191505060405180910390fd5b8060066000610e446116e0565b73ffffffffffffffffffffffffffffffffffffffff1673ffffffffffffffffffffffffffffffffffffffff16815260200190815260200160002060008473ffffffffffffffffffffffffffffffffffffffff1673ffffffffffffffffffffffffffffffffffffffff16815260200190815260200160002060006101000a81548160ff0219169083151502179055508173ffffffffffffffffffffffffffffffffffffffff16610ef16116e0565b73ffffffffffffffffffffffffffffffffffffffff167f17307eab39ab6107e8899845ad3d59bd9653f200f220920489ca2b5937696c318360405180821515815260200191505060405180910390a35050565b600b8181548110610f5457600080fd5b906000526020600020016000915090508054600181600116156101000203166002900480601f016020809104026020016040519081016040528092919081815260200182805460018160011615610100020316600290048015610ff85780601f10610fcd57610100808354040283529160200191610ff8565b820191906000526020600020905b815481529060010190602001808311610fdb57829003601f168201915b505050505081565b61101161100b6116e0565b836117b6565b611066576040517f08c379a00000000000000000000000000000000000000000000000000000000081526004018080602001828103825260318152602001806133e26031913960400191505060405180910390fd5b61107284848484611b67565b50505050565b6060611083826116c3565b6110d8576040517f08c379a000000000000000000000000000000000000000000000000000000000815260040180806020018281038252602f815260200180613392602f913960400191505060405180910390fd5b6060600960008481526020019081526020016000208054600181600116156101000203166002900480601f0160208091040260200160405190810160405280929190818152602001828054600181600116156101000203166002900480156111815780601f1061115657610100808354040283529160200191611181565b820191906000526020600020905b81548152906001019060200180831161116457829003601f168201915b505050505090506000600a80546001816001161561010002031660029004905014156111b0578091505061135c565b60008151111561128957600a81604051602001808380546001816001161561010002031660029004801561121b5780601f106111f957610100808354040283529182019161121b565b820191906000526020600020905b815481529060010190602001808311611207575b505082805190602001908083835b6020831061124c5780518252602082019150602081019050602083039250611229565b6001836020036101000a0380198251168184511680821785525050505050509050019250505060405160208183030381529060405291505061135c565b600a61129484611bd9565b60405160200180838054600181600116156101000203166002900480156112f25780601f106112d05761010080835404028352918201916112f2565b820191906000526020600020905b8154815290600101906020018083116112de575b505082805190602001908083835b602083106113235780518252602082019150602081019050602083039250611300565b6001836020036101000a038019825116818451168082178552505050505050905001925050506040516020818303038152906040529150505b919050565b6000600c826040516113739190612ecc565b908152602001604051809103902060009054906101000a900460ff161561139957600080fd5b600b829080600181540180825580915050600190039060005260206000200160009091909190915090805190602001906113d4929190612992565b506113e433600b80549050611d20565b6001600c836040516113f69190612ecc565b908152602001604051809103902060006101000a81548160ff02191690831515021790555060019050919050565b6000600660008473ffffffffffffffffffffffffffffffffffffffff1673ffffffffffffffffffffffffffffffffffffffff16815260200190815260200160002060008373ffffffffffffffffffffffffffffffffffffffff1673ffffffffffffffffffffffffffffffffffffffff16815260200190815260200160002060009054906101000a900460ff16905092915050565b6114c06116e0565b73ffffffffffffffffffffffffffffffffffffffff1660008054906101000a900473ffffffffffffffffffffffffffffffffffffffff1673ffffffffffffffffffffffffffffffffffffffff1614611580576040517f08c379a00000000000000000000000000000000000000000000000000000000081526004018080602001828103825260208152602001807f4f776e61626c653a2063616c6c6572206973206e6f7420746865206f776e657281525060200191505060405180910390fd5b600073ffffffffffffffffffffffffffffffffffffffff168173ffffffffffffffffffffffffffffffffffffffff161415611606576040517f08c379a00000000000000000000000000000000000000000000000000000000081526004018080602001828103825260268152602001806131f46026913960400191505060405180910390fd5b8073ffffffffffffffffffffffffffffffffffffffff1660008054906101000a900473ffffffffffffffffffffffffffffffffffffffff1673ffffffffffffffffffffffffffffffffffffffff167f8be0079c531659141344cd1fd0a4f28419497f9722a3daafe3b4186f6b6457e060405160405180910390a3806000806101000a81548173ffffffffffffffffffffffffffffffffffffffff021916908373ffffffffffffffffffffffffffffffffffffffff16021790555050565b60006116d9826003611d3e90919063ffffffff16565b9050919050565b600033905090565b816005600083815260200190815260200160002060006101000a81548173ffffffffffffffffffffffffffffffffffffffff021916908373ffffffffffffffffffffffffffffffffffffffff160217905550808273ffffffffffffffffffffffffffffffffffffffff1661175b836108a6565b73ffffffffffffffffffffffffffffffffffffffff167f8c5be1e5ebec7d5bd14f71427d1e84f3dd0314c0f7b2291e5b200ac8c7c3b92560405160405180910390a45050565b60006117af82600001611d58565b9050919050565b60006117c1826116c3565b611816576040517f08c379a000000000000000000000000000000000000000000000000000000000815260040180806020018281038252602c815260200180613264602c913960400191505060405180910390fd5b6000611821836108a6565b90508073ffffffffffffffffffffffffffffffffffffffff168473ffffffffffffffffffffffffffffffffffffffff16148061189057508373ffffffffffffffffffffffffffffffffffffffff16611878846105a2565b73ffffffffffffffffffffffffffffffffffffffff16145b806118a157506118a08185611424565b5b91505092915050565b8273ffffffffffffffffffffffffffffffffffffffff166118ca826108a6565b73ffffffffffffffffffffffffffffffffffffffff1614611936576040517f08c379a00000000000000000000000000000000000000000000000000000000081526004018080602001828103825260298152602001806133696029913960400191505060405180910390fd5b600073ffffffffffffffffffffffffffffffffffffffff168273ffffffffffffffffffffffffffffffffffffffff1614156119bc576040517f08c379a000000000000000000000000000000000000000000000000000000000815260040180806020018281038252602481526020018061321a6024913960400191505060405180910390fd5b6119c7838383611d69565b6119d26000826116e8565b611a2381600260008673ffffffffffffffffffffffffffffffffffffffff1673ffffffffffffffffffffffffffffffffffffffff168152602001908152602001600020611d6e90919063ffffffff16565b50611a7581600260008573ffffffffffffffffffffffffffffffffffffffff1673ffffffffffffffffffffffffffffffffffffffff168152602001908152602001600020611d8890919063ffffffff16565b50611a8c81836003611da29092919063ffffffff16565b50808273ffffffffffffffffffffffffffffffffffffffff168473ffffffffffffffffffffffffffffffffffffffff167fddf252ad1be2c89b69c2b068fc378daa952ba7f163c4a11628f55a4df523b3ef60405160405180910390a4505050565b6000611afc8360000183611dd7565b60001c905092915050565b600080600080611b1a8660000186611e5a565b915091508160001c8160001c9350935050509250929050565b6000611b46846000018460001b84611ef3565b60001c90509392505050565b6000611b6082600001611fe9565b9050919050565b611b728484846118aa565b611b7e84848484611ffa565b611bd3576040517f08c379a00000000000000000000000000000000000000000000000000000000081526004018080602001828103825260328152602001806131c26032913960400191505060405180910390fd5b50505050565b60606000821415611c21576040518060400160405280600181526020017f30000000000000000000000000000000000000000000000000000000000000008152509050611d1b565b600082905060005b60008214611c4b578080600101915050600a8281611c4357fe5b049150611c29565b60608167ffffffffffffffff81118015611c6457600080fd5b506040519080825280601f01601f191660200182016040528015611c975781602001600182028036833780820191505090505b50905060006001830390508593505b60008414611d1357600a8481611cb857fe5b0660300160f81b82828060019003935081518110611cd257fe5b60200101907effffffffffffffffffffffffffffffffffffffffffffffffffffffffffffff1916908160001a905350600a8481611d0b57fe5b049350611ca6565b819450505050505b919050565b611d3a828260405180602001604052806000815250612213565b5050565b6000611d50836000018360001b612284565b905092915050565b600081600001805490509050919050565b505050565b6000611d80836000018360001b6122a7565b905092915050565b6000611d9a836000018360001b61238f565b905092915050565b6000611dce846000018460001b8473ffffffffffffffffffffffffffffffffffffffff1660001b6123ff565b90509392505050565b600081836000018054905011611e38576040517f08c379a00000000000000000000000000000000000000000000000000000000081526004018080602001828103825260228152602001806131a06022913960400191505060405180910390fd5b826000018281548110611e4757fe5b9060005260206000200154905092915050565b60008082846000018054905011611ebc576040517f08c379a000000000000000000000000000000000000000000000000000000000815260040180806020018281038252602281526020018061331b6022913960400191505060405180910390fd5b6000846000018481548110611ecd57fe5b906000526020600020906002020190508060000154816001015492509250509250929050565b60008084600101600085815260200190815260200160002054905060008114158390611fba576040517f08c379a00000000000000000000000000000000000000000000000000000000081526004018080602001828103825283818151815260200191508051906020019080838360005b83811015611f7f578082015181840152602081019050611f64565b50505050905090810190601f168015611fac5780820380516001836020036101000a031916815260200191505b509250505060405180910390fd5b50846000016001820381548110611fcd57fe5b9060005260206000209060020201600101549150509392505050565b600081600001805490509050919050565b600061201b8473ffffffffffffffffffffffffffffffffffffffff166124db565b612028576001905061220b565b606061219263150b7a0260e01b61203d6116e0565b888787604051602401808573ffffffffffffffffffffffffffffffffffffffff1681526020018473ffffffffffffffffffffffffffffffffffffffff16815260200183815260200180602001828103825283818151815260200191508051906020019080838360005b838110156120c15780820151818401526020810190506120a6565b50505050905090810190601f1680156120ee5780820380516001836020036101000a031916815260200191505b5095505050505050604051602081830303815290604052907bffffffffffffffffffffffffffffffffffffffffffffffffffffffff19166020820180517bffffffffffffffffffffffffffffffffffffffffffffffffffffffff83818316178352505050506040518060600160405280603281526020016131c2603291398773ffffffffffffffffffffffffffffffffffffffff166124ee9092919063ffffffff16565b905060008180602001905160208110156121ab57600080fd5b8101908080519060200190929190505050905063150b7a0260e01b7bffffffffffffffffffffffffffffffffffffffffffffffffffffffff1916817bffffffffffffffffffffffffffffffffffffffffffffffffffffffff191614925050505b949350505050565b61221d8383612506565b61222a6000848484611ffa565b61227f576040517f08c379a00000000000000000000000000000000000000000000000000000000081526004018080602001828103825260328152602001806131c26032913960400191505060405180910390fd5b505050565b600080836001016000848152602001908152602001600020541415905092915050565b6000808360010160008481526020019081526020016000205490506000811461238357600060018203905060006001866000018054905003905060008660000182815481106122f257fe5b906000526020600020015490508087600001848154811061230f57fe5b906000526020600020018190555060018301876001016000838152602001908152602001600020819055508660000180548061234757fe5b60019003818190600052602060002001600090559055866001016000878152602001908152602001600020600090556001945050505050612389565b60009150505b92915050565b600061239b83836126fa565b6123f45782600001829080600181540180825580915050600190039060005260206000200160009091909190915055826000018054905083600101600084815260200190815260200160002081905550600190506123f9565b600090505b92915050565b60008084600101600085815260200190815260200160002054905060008114156124a6578460000160405180604001604052808681526020018581525090806001815401808255809150506001900390600052602060002090600202016000909190919091506000820151816000015560208201518160010155505084600001805490508560010160008681526020019081526020016000208190555060019150506124d4565b828560000160018303815481106124b957fe5b90600052602060002090600202016001018190555060009150505b9392505050565b600080823b905060008111915050919050565b60606124fd848460008561271d565b90509392505050565b600073ffffffffffffffffffffffffffffffffffffffff168273ffffffffffffffffffffffffffffffffffffffff1614156125a9576040517f08c379a00000000000000000000000000000000000000000000000000000000081526004018080602001828103825260208152602001807f4552433732313a206d696e7420746f20746865207a65726f206164647265737381525060200191505060405180910390fd5b6125b2816116c3565b15612625576040517f08c379a000000000000000000000000000000000000000000000000000000000815260040180806020018281038252601c8152602001807f4552433732313a20746f6b656e20616c7265616479206d696e7465640000000081525060200191505060405180910390fd5b61263160008383611d69565b61268281600260008573ffffffffffffffffffffffffffffffffffffffff1673ffffffffffffffffffffffffffffffffffffffff168152602001908152602001600020611d8890919063ffffffff16565b5061269981836003611da29092919063ffffffff16565b50808273ffffffffffffffffffffffffffffffffffffffff16600073ffffffffffffffffffffffffffffffffffffffff167fddf252ad1be2c89b69c2b068fc378daa952ba7f163c4a11628f55a4df523b3ef60405160405180910390a45050565b600080836001016000848152602001908152602001600020541415905092915050565b606082471015612778576040517f08c379a000000000000000000000000000000000000000000000000000000000815260040180806020018281038252602681526020018061323e6026913960400191505060405180910390fd5b612781856124db565b6127f3576040517f08c379a000000000000000000000000000000000000000000000000000000000815260040180806020018281038252601d8152602001807f416464726573733a2063616c6c20746f206e6f6e2d636f6e747261637400000081525060200191505060405180910390fd5b600060608673ffffffffffffffffffffffffffffffffffffffff1685876040518082805190602001908083835b602083106128435780518252602082019150602081019050602083039250612820565b6001836020036101000a03801982511681845116808217855250505050505090500191505060006040518083038185875af1925050503d80600081146128a5576040519150601f19603f3d011682016040523d82523d6000602084013e6128aa565b606091505b50915091506128ba8282866128c6565b92505050949350505050565b606083156128d65782905061298b565b6000835111156128e95782518084602001fd5b816040517f08c379a00000000000000000000000000000000000000000000000000000000081526004018080602001828103825283818151815260200191508051906020019080838360005b83811015612950578082015181840152602081019050612935565b50505050905090810190601f16801561297d5780820380516001836020036101000a031916815260200191505b509250505060405180910390fd5b9392505050565b828054600181600116156101000203166002900490600052602060002090601f0160209004810192826129c85760008555612a0f565b82601f106129e157805160ff1916838001178555612a0f565b82800160010185558215612a0f579182015b82811115612a0e5782518255916020019190600101906129f3565b5b509050612a1c9190612a20565b5090565b5b80821115612a39576000816000905550600101612a21565b5090565b600081359050612a4c81613143565b92915050565b600081359050612a618161315a565b92915050565b600081359050612a7681613171565b92915050565b600082601f830112612a8d57600080fd5b8135612aa0612a9b82612fa9565b612f78565b91508082526020830160208301858383011115612abc57600080fd5b612ac78382846130ee565b50505092915050565b600082601f830112612ae157600080fd5b8135612af4612aef82612fd9565b612f78565b91508082526020830160208301858383011115612b1057600080fd5b612b1b8382846130ee565b50505092915050565b600081359050612b3381613188565b92915050565b600060208284031215612b4b57600080fd5b6000612b5984828501612a3d565b91505092915050565b60008060408385031215612b7557600080fd5b6000612b8385828601612a3d565b9250506020612b9485828601612a3d565b9150509250929050565b600080600060608486031215612bb357600080fd5b6000612bc186828701612a3d565b9350506020612bd286828701612a3d565b9250506040612be386828701612b24565b9150509250925092565b60008060008060808587031215612c0357600080fd5b6000612c1187828801612a3d565b9450506020612c2287828801612a3d565b9350506040612c3387828801612b24565b925050606085013567ffffffffffffffff811115612c5057600080fd5b612c5c87828801612a7c565b91505092959194509250565b60008060408385031215612c7b57600080fd5b6000612c8985828601612a3d565b9250506020612c9a85828601612a52565b9150509250929050565b60008060408385031215612cb757600080fd5b6000612cc585828601612a3d565b9250506020612cd685828601612b24565b9150509250929050565b600060208284031215612cf257600080fd5b6000612d0084828501612a67565b91505092915050565b600060208284031215612d1b57600080fd5b600082013567ffffffffffffffff811115612d3557600080fd5b612d4184828501612ad0565b91505092915050565b600060208284031215612d5c57600080fd5b6000612d6a84828501612b24565b91505092915050565b6000612d7f8383612e1a565b905092915050565b612d908161307a565b82525050565b6000612da182613019565b612dab818561303c565b935083602082028501612dbd85613009565b8060005b85811015612df95784840389528151612dda8582612d73565b9450612de58361302f565b925060208a01995050600181019050612dc1565b50829750879550505050505092915050565b612e148161308c565b82525050565b6000612e2582613024565b612e2f818561304d565b9350612e3f8185602086016130fd565b612e4881613132565b840191505092915050565b6000612e5e82613024565b612e68818561305e565b9350612e788185602086016130fd565b612e8181613132565b840191505092915050565b6000612e9782613024565b612ea1818561306f565b9350612eb18185602086016130fd565b80840191505092915050565b612ec6816130e4565b82525050565b6000612ed88284612e8c565b915081905092915050565b6000602082019050612ef86000830184612d87565b92915050565b60006020820190508181036000830152612f188184612d96565b905092915050565b6000602082019050612f356000830184612e0b565b92915050565b60006020820190508181036000830152612f558184612e53565b905092915050565b6000602082019050612f726000830184612ebd565b92915050565b6000604051905081810181811067ffffffffffffffff82111715612f9f57612f9e613130565b5b8060405250919050565b600067ffffffffffffffff821115612fc457612fc3613130565b5b601f19601f8301169050602081019050919050565b600067ffffffffffffffff821115612ff457612ff3613130565b5b601f19601f8301169050602081019050919050565b6000819050602082019050919050565b600081519050919050565b600081519050919050565b6000602082019050919050565b600082825260208201905092915050565b600082825260208201905092915050565b600082825260208201905092915050565b600081905092915050565b6000613085826130c4565b9050919050565b60008115159050919050565b60007fffffffff0000000000000000000000000000000000000000000000000000000082169050919050565b600073ffffffffffffffffffffffffffffffffffffffff82169050919050565b6000819050919050565b82818337600083830152505050565b60005b8381101561311b578082015181840152602081019050613100565b8381111561312a576000848401525b50505050565bfe5b6000601f19601f8301169050919050565b61314c8161307a565b811461315757600080fd5b50565b6131638161308c565b811461316e57600080fd5b50565b61317a81613098565b811461318557600080fd5b50565b613191816130e4565b811461319c57600080fd5b5056fe456e756d657261626c655365743a20696e646578206f7574206f6620626f756e64734552433732313a207472616e7366657220746f206e6f6e20455243373231526563656976657220696d706c656d656e7465724f776e61626c653a206e6577206f776e657220697320746865207a65726f20616464726573734552433732313a207472616e7366657220746f20746865207a65726f2061646472657373416464726573733a20696e73756666696369656e742062616c616e636520666f722063616c6c4552433732313a206f70657261746f7220717565727920666f72206e6f6e6578697374656e7420746f6b656e4552433732313a20617070726f76652063616c6c6572206973206e6f74206f776e6572206e6f7220617070726f76656420666f7220616c6c4552433732313a2062616c616e636520717565727920666f7220746865207a65726f20616464726573734552433732313a206f776e657220717565727920666f72206e6f6e6578697374656e7420746f6b656e456e756d657261626c654d61703a20696e646578206f7574206f6620626f756e64734552433732313a20617070726f76656420717565727920666f72206e6f6e6578697374656e7420746f6b656e4552433732313a207472616e73666572206f6620746f6b656e2074686174206973206e6f74206f776e4552433732314d657461646174613a2055524920717565727920666f72206e6f6e6578697374656e7420746f6b656e4552433732313a20617070726f76616c20746f2063757272656e74206f776e65724552433732313a207472616e736665722063616c6c6572206973206e6f74206f776e6572206e6f7220617070726f766564a2646970667358221220324f4b4e2b14f842cc20f8d29c061ee1000fc88bf4145a0b71e40bb790d196c264736f6c63430007040033",
  "immutableReferences": {},
  "source": "// SPDX-License-Identifier: MIT\npragma solidity ^0.7.4;\npragma experimental ABIEncoderV2;\n\n\nimport \"@openzeppelin/contracts/token/ERC721/ERC721.sol\";\nimport \"@openzeppelin/contracts/access/Ownable.sol\";\n\ncontract cryptopuppies is Ownable, ERC721{\n\n\n    string[] public puppies;\n    mapping(string => bool) _puppyExists;\n\n    constructor() ERC721(\"Puppy\", \"PUPPY\") {\n    }\n\n        \n    function mint(string memory _puppy) public returns(bool) {\n        require(!_puppyExists[_puppy]);\n        puppies.push(_puppy);\n        _safeMint(msg.sender, puppies.length);\n        _puppyExists[_puppy] = true;\n        return true;\n    }\n\n    function getpuppies() public view returns(string [] memory) {\n        return puppies;\n    }\n}",
  "sourcePath": "/home/abir/my-repos/blockchain/cryptopuppies/contracts/cryptopuppies.sol",
  "compiler": {
    "name": "solc",
    "version": "0.7.4+commit.3f05b770.Emscripten.clang"
  },
  "schemaVersion": "3.3.3",
  "updatedAt": "2021-01-23T20:29:42.716Z",
  "networkType": "ethereum",
  "devdoc": {
    "kind": "dev",
    "methods": {
      "approve(address,uint256)": {
        "details": "See {IERC721-approve}."
      },
      "balanceOf(address)": {
        "details": "See {IERC721-balanceOf}."
      },
      "baseURI()": {
        "details": "Returns the base URI set via {_setBaseURI}. This will be automatically added as a prefix in {tokenURI} to each token's URI, or to the token ID if no specific URI is set for that token ID."
      },
      "getApproved(uint256)": {
        "details": "See {IERC721-getApproved}."
      },
      "isApprovedForAll(address,address)": {
        "details": "See {IERC721-isApprovedForAll}."
      },
      "name()": {
        "details": "See {IERC721Metadata-name}."
      },
      "owner()": {
        "details": "Returns the address of the current owner."
      },
      "ownerOf(uint256)": {
        "details": "See {IERC721-ownerOf}."
      },
      "renounceOwnership()": {
        "details": "Leaves the contract without owner. It will not be possible to call `onlyOwner` functions anymore. Can only be called by the current owner. NOTE: Renouncing ownership will leave the contract without an owner, thereby removing any functionality that is only available to the owner."
      },
      "safeTransferFrom(address,address,uint256)": {
        "details": "See {IERC721-safeTransferFrom}."
      },
      "safeTransferFrom(address,address,uint256,bytes)": {
        "details": "See {IERC721-safeTransferFrom}."
      },
      "setApprovalForAll(address,bool)": {
        "details": "See {IERC721-setApprovalForAll}."
      },
      "supportsInterface(bytes4)": {
        "details": "See {IERC165-supportsInterface}. Time complexity O(1), guaranteed to always use less than 30 000 gas."
      },
      "symbol()": {
        "details": "See {IERC721Metadata-symbol}."
      },
      "tokenByIndex(uint256)": {
        "details": "See {IERC721Enumerable-tokenByIndex}."
      },
      "tokenOfOwnerByIndex(address,uint256)": {
        "details": "See {IERC721Enumerable-tokenOfOwnerByIndex}."
      },
      "tokenURI(uint256)": {
        "details": "See {IERC721Metadata-tokenURI}."
      },
      "totalSupply()": {
        "details": "See {IERC721Enumerable-totalSupply}."
      },
      "transferFrom(address,address,uint256)": {
        "details": "See {IERC721-transferFrom}."
      },
      "transferOwnership(address)": {
        "details": "Transfers ownership of the contract to a new account (`newOwner`). Can only be called by the current owner."
      }
    },
    "version": 1
  },
  "userdoc": {
    "kind": "user",
    "methods": {},
    "version": 1
  }
}